:020000040000FA
:102000002EEF30F0FFFFFFFFFFFFFFFFFFFFFFFF9F
:10201000FFFFFFFFFFFFFFFFFFFFFFFFFFFFFFFFD0
:10202000FFFFFFFFFFFFFFFFFFFFFFFFFFFFFFFFC0
:10203000FFFFFFFFFFFFFFFFFFFFFFFFFFFFFFFFB0
:105B8000FFFFFFFFFFFFFF0827289E961200C69A1F
:105B900012009D961200C5801200C5821200C584B5
:105BA0001200010E1200050E1200C5861200C95027
:105BB00012009E861200C58AC5881200C59AC58843
:105BC0001200016E01C0C9FF1200CDEC2DF0010ED4
:105BD0001200CDEC2DF0020E1200CDEC2DF0010ED6
:105BE0001200CFEC2DF0000E1200DEEC2DF0050EB1
:105BF0001200DBEC2DF00A0E1200DBEC2DF0090E8A
:105C00001200000EE9EC2FF0120000018393000E49
:105C1000826F0E0E120000018391D5EC2DF0040E60
:105C2000120000018393000E826F0E0E120036ECFC
:105C30002EF0A8EC2FF08BEC2EF0120000018381E7
:105C4000D8807C35E1EC2DF0050E12000001838137
:105C50007C517C25E1EC2DF0030E12009EA633EF63
:105C60002EF035EF2EF02EEF2EF01200000EC76E44
:105C7000080EC66E000EC56E770EC86EC69A12006C
:105C8000C5BC45EF2EF048EF2EF0010E49EF2EF087
:105C9000000E120006C001F007C002F008C003F0B9
:105CA00009C004F0000ED9EC30F0120006C001F07B
:105CB00007C002F008C003F009C004F0020ED9ECDE
:105CC00030F01200010ED1EC2EF03F0E196E550E81
:105CD000E82EFED7192EFCD700001200FF0E01247B
:105CE000036EFF0E0220046E03C099F004C09AF008
:105CF00000019B6B9C6B120082EF2EF02EEC2EF0BD
:105D0000A7EC30F0000183B388EF2EF08AEF2EF07D
:105D10007EEF2EF01200700ED36E000ED26E800E4B
:105D20009B6E000EB56ED2AE98EF2EF09AEF2EF06D
:105D300093EF2EF01200C6BAA0EF2EF0A2EF2EF0D5
:105D4000ABEF2EF0000EC76E080EC66E000EC56ECD
:105D5000770EC86EC68A1200000183A7B2EF2EF03C
:105D6000B4EF2EF0BDEF2EF001C07DF002C07EF04A
:105D700003C07FF004C080F0839712008A9493944C
:105D8000020E026E380E016EAD0EE82EFED7012E09
:105D9000FCD7022EFAD700009384040EE82EFED71B
:105DA0001200186E1850F00B166E1838F00BF00B2E
:105DB000176E165051EC30F0175051EC30F0C00E09
:105DC00000D0E82EFDD7120001500302F3CF05F0FA
:105DD000F4CF06F001500402F350062602500302ED
:105DE000F350062605C001F006C002F01200186E3E
:105DF0001850F00B0109166E1838F00BF00B010962
:105E0000176E165051EC30F0175051EC30F0C00EB8
:105E100000D0E82EFDD71200010E016E000183B301
:105E200014EF2FF016EF2FF020EF2FF083957C6901
:105E3000C5EC2DF0C9EC2DF0C7EC2DF082C001F0BF
:105E4000015012000AC001F00BC002F0000E046EF7
:105E5000020E036EACEC2EF0000E066E000E076E06
:105E6000000E086E000E096E4AEC2EF0040E1200B1
:105E70000AC001F00BC002F0000E046E010E036EAA
:105E8000ACEC2EF0000E066E000E076E000E086ED3
:105E9000000E096E4AEC2EF0020E12000AC001F04C
:105EA0000BC002F0000E046E020E036EACEC2EF07E
:105EB000000E066E000E076E000E086E000E096ED4
:105EC0004AEC2EF0020E12000AC001F00BC002F0E4
:105ED000000E046E010E036EACEC2EF0000E066E8A
:105EE000000E076E000E086E000E096E4AEC2EF0D2
:105EF000040E12000AC001F00BC002F0000E046E86
:105F0000010E036EACEC2EF0000E066E000E076E56
:105F1000000E086E000E096E4AEC2EF0040E120000
:105F20001A6E030E196497EF2FF099EF2FF09BEF85
:105F30002FF0A7EF2FF0D10E1924F66EF76A7E0E20
:105F4000F7220800F5501A248009D1EC2EF0120037
:105F5000000E8D6E000E8C6E000E896E000E8A6E25
:105F6000000E8B6E070E966E9268F70E936EC70E3C
:105F7000946E95680F015E69C40E5D6F380E5C6F9C
:105F8000070E5F6F2F0E5B6F030E856EF19E120082
:105F900020EE02F00A50D9260B50DA22DF500C6EA8
:105FA0000CC001F0026A0AC0D9FF0BC0DAFFDECFD5
:105FB00003F0DDCF04F0ACEC2EF0000E066E000E08
:105FC000076E000E086E000E096E4AEC2EF0020EEF
:105FD00012000F6E010E106E000183B3F2EF2FF06E
:105FE000F4EF2FF009EF30F08383000E106E0F50A6
:105FF000D8B4FDEF2FF0FFEF2FF003EF30F0010EDC
:10600000816F05EF30F0020E816FCBEC2DF07CEC50
:106010002EF010501200000E231A000E241A000E4B
:10602000251A800E261A1FC00FF020C010F021C0C4
:1060300011F022C012F023C013F024C014F025C0C8
:1060400015F026C016F0F8EC3CF00FC01FF010C0A1
:1060500020F011C021F012C022F01200870EF66E5F
:106060005B0EF76E000EF86E0900F5CF58F00900D0
:10607000F5CF59F00900F5CF5AF001EE00F0280EE7
:10608000EE6AE806FDE100EE60F0450EEE6AE80615
:10609000FDE15B6A5D6A5C6A000EF86E0001C2EFAA
:1060A00035F0146E14505810156E15C011F015C04F
:1060B00012F059500CEC31F0040EE82EFED71450BB
:1060C00058100409156E15C011F015C012F0595082
:1060D0000CEC31F0040EE82EFED71450FB0B5810D8
:1060E000156E15C011F015C012F059500CEC31F0BE
:1060F000040EE82EFED71200000E1E6E000E1D6E5E
:1061000092EF30F01D5019241B6E1E501A201C6E89
:106110001BC0F6FF1CC0F7FF0800F550F7EC2EF08F
:106120001D4A1E2A1D5019241B6E1E501A201C6E5B
:106130001BC0F6FF1CC0F7FF0800F5500009D8A4EB
:10614000A4EF30F0A6EF30F082EF30F01200C5EC93
:106150002DF0000183A1AFEF30F0B1EF30F0BEEFD2
:1061600030F040EC2EF00009D8B4B9EF30F0BBEFBE
:1061700030F0BEEF30F00F0E0001816F0001815151
:10618000020DB10EF324F66E7E0EF420F76E02D8E7
:10619000D6EF30F00500FA6E0900F550FD6E0900EB
:1061A000F550FE6EF850FF6EFA5012000001816F3C
:1061B0001200056E01500210D8B4E1EF30F0E3EFA9
:1061C00030F0F9EF30F00550020DF350600FD96E4A
:1061D000DA6A01C0DEFF02C0DDFF0550020DF35098
:1061E0006C0FD96EDA6A03C0DEFF04C0DDFF0BEF6F
:1061F00031F00550020DF350600FD96EDA6AA20E2D
:10620000DE6E5B0EDD6E0550020DF3506C0FD96E25
:10621000DA6ADE6ADD6A1200136E1350B6EC31F0F2
:106220000009D8B416EF31F018EF31F00DEF31F06E
:10623000F40E066E5E0E076E120E086E096A4AECC8
:106240002EF0110E016E026A000E046E010E036E36
:10625000ACEC2EF0000E066E000E076E000E086EFF
:10626000000E096E56EC2EF001EC2EF00CEC2FF027
:10627000E806D8B43EEF31F040EF31F036EF31F0C0
:10628000120000018391020E826F4FEF31F0EDECAE
:106290002DF076EF31F0F1EC2DF076EF31F070C0AB
:1062A0000AF071C00BF020EE64F002D862EF31F01A
:1062B0000500FA6EDE50FD6EDE50FE6EF850FF6E89
:1062C000FA5012000D6E0E6A0E50000AD8B46BEF31
:1062D00031F04BEF31F00D50020AD8B447EF31F0F6
:1062E000010AD8B447EF31F04BEF31F01200000152
:1062F000838788EF31F0EDEC2DF0B5EF31F0D9EC7C
:106300002DF0030EB5EF31F0F1EC2DF0B5EF31F0DB
:106310006CC00AF06DC00BF002D899EF31F00500A7
:10632000FA6E6051FD6E6151FE6EF850FF6EFA50CC
:1063300012000D6E0E6A0E50000AD8B4A2EF31F0B2
:1063400084EF31F00D50010AD8B484EF31F0030A24
:10635000D8B47BEF31F0010AD8B47BEF31F0070AF3
:10636000D8B47FEF31F084EF31F01200016E010EEE
:10637000026E000183B5BFEF31F0C1EF31F0FBEFEA
:1063800031F001C07CF08393838583910E0E816F81
:10639000010E7B6FF40E7A6F8387A20E606F5B0E27
:1063A000616F000E6C6F000E6D6FA20E626F5B0E60
:1063B000636F000E6E6F000E6F6FA20E646F5B0E48
:1063C000656F000E706F000E716FA20E666F5B0E30
:1063D000676F000E726F000E736FA60E686F5B0E14
:1063E000696F000E746F000E756FC5EC2DF09BEC9D
:1063F0002EF0000E026E025012001C6E1CC059F0EE
:10640000300E51EC30F0470E1A6E200EE82EFED7FB
:106410001A2EFCD7300E51EC30F0470E1A6E200EBB
:10642000E82EFED71A2EFCD7300E51EC30F0030EBA
:106430001A6E550EE82EFED71A2EFCD70000280E35
:1064400051EC30F0050E1B6EDF0E1A6EBC0EE82EFE
:10645000FED71A2EFCD71B2EFAD7280ED1EC2EF021
:10646000050E1B6EDF0E1A6EBC0EE82EFED71A2E1E
:10647000FCD71B2EFAD7080ED1EC2EF062EC2EF0D2
:10648000060ED1EC2EF00C0ED1EC2EF01200D7EC53
:106490002DF07DC0D9FF7EC0DAFFDF6E00017D4B9D
:1064A0007E2B7F07D8A080077F518011D8B45BEF87
:1064B00032F05DEF32F062EF32F0DEEC2DF0050EDF
:1064C0009AEF32F083876DEF32F0FDEC2DF09AEF0A
:1064D00032F0F9EC2DF09AEF32F06CC00AF06DC09A
:1064E0000BF002D87EEF32F00500FA6E6051FD6EBF
:1064F0006151FE6EF850FF6EFA5012000D6E0E6A7A
:106500000E50000AD8B487EF32F069EF32F00D5028
:10651000010AD8B469EF32F0030AD8B465EF32F05B
:10652000010AD8B465EF32F0070AD8B469EF32F047
:1065300069EF32F01200000E066E02BEA4EF32F0D8
:10654000A2EF32F0AAEF32F0016C021ED8B0022A9C
:10655000010E066E04BEB1EF32F0AFEF32F0B5EFD0
:1065600032F0036C041ED8B0042A03500410D8B4CF
:10657000BCEF32F0BEEF32F0E2EF32F0010E056E0A
:10658000C6EF32F0D89003360436052A04AECBEFBE
:1065900032F0CDEF32F0C2EF32F00350015C045024
:1065A0000258D8A0D6EF32F0D8EF32F0DCEF32F05C
:1065B0000350015E0450025AD89004320332052E73
:1065C000CDEF32F00650D8B4E8EF32F0EAEF32F017
:1065D000EEEF32F0016C021ED8B0022A01C001F0C9
:1065E00002C002F0120020EE1BF00F0EDE6AE80679
:1065F000FDE2000E2C6E1ABE02EF33F000EF33F016
:1066000009EF33F02D0EF7EC2EF0196C1A1ED8B0EE
:106610001A2A2C501B0FD96EDA6A19C001F01AC061
:1066200002F0000E046E0A0E036E9BEC32F0015075
:10663000300FDF6E2C2A19C001F01AC002F0000ED4
:10664000046E0A0E036E4DEC33F001C019F002C067
:106650001AF01ABE36EF33F01A5006E11904D8B01A
:1066600034EF33F036EF33F009EF33F0010E2B6ED9
:1066700043EF33F02B501B082C24D96EDA6ADF501D
:10668000F7EC2EF02B2A2B502C5CD8B04AEF33F0CD
:106690004CEF33F03AEF33F01200000E066E04BEFA
:1066A00056EF33F054EF33F05CEF33F0036C041E1D
:1066B000D8B0042A010E066E02BE63EF33F061EF1C
:1066C00033F069EF33F0016C021ED8B0022A010EDC
:1066D000061A000E086E000E076E03500410D8B4A0
:1066E00074EF33F076EF33F09EEF33F0010E056E6A
:1066F0007EEF33F0D89003360436052A04AE83EFDC
:1067000033F085EF33F07AEF33F0D8900736083660
:106710000350015C04500258D8A091EF33F093EF7E
:1067200033F098EF33F00350015E0450025A0780B3
:10673000D89004320332052E85EF33F00650D8B4DA
:10674000A4EF33F0A6EF33F0AAEF33F0076C081E86
:10675000D8B0082A07C001F008C002F0120040ECCF
:106760002EF00009D8B4B7EF33F0B9EF33F0F6EFFD
:1067700033F0C7EF33F0E5EC2DF012EF34F0E9EC35
:106780002DF012EF34F0F1EC2DF012EF34F072C076
:106790000AF073C00BF020EE66F002D8DAEF33F0A7
:1067A0000500FA6EDE50FD6EDE50FE6EF850FF6E94
:1067B000FA5012000D6E0E6A0E50000AD8B4E3EFC4
:1067C00033F0C3EF33F00D50010AD8B4C3EF33F008
:1067D000030AD8B4BBEF33F0010AD8B4BFEF33F0EB
:1067E000070AD8B4C3EF33F0C3EF33F0000183914D
:1067F0007DC0D9FF7EC0DAFF7D4B7E2BDF50E1EC00
:106800002DF000017F07D8A080077F518011D8A408
:106810000CEF34F00EEF34F011EF34F0060E12EFFF
:1068200034F0030E120042344334496E4950D8A468
:106830001CEF34F01EEF34F028EF34F0000E406E01
:10684000000E416E000E426E000E436E95EF34F066
:1068500040C044F041C045F042C046F043C047F05C
:10686000200E38EF34F0D890473246324532443269
:10687000E82E33EF34F04450486E428EFF0E40163F
:10688000FF0E4116FF0E4216000E4316960E495E8D
:1068900049BE4FEF34F04DEF34F065EF34F049501E
:1068A000800A970FD8B057EF34F059EF34F05BEF10
:1068B00034F01EEF34F0D89043324232413240324D
:1068C000493E5BEF34F07DEF34F01F0E49646BEF0F
:1068D00034F06DEF34F075EF34F01EEF34F0D890F3
:1068E000403641364236433649064950D8A47BEFFC
:1068F00034F07DEF34F06FEF34F04850D8B483EFCC
:1069000034F085EF34F08DEF34F0431E421E411E0B
:10691000406C000E41224222432240C040F041C060
:1069200041F042C042F043C043F012008A94938485
:106930005B82F2AE5B92F29EBEEC2EF0010E506EC8
:10694000B8EF34F0502A5004D8A4A9EF34F0ABEFDC
:1069500034F0B8EF34F05BB2B0EF34F0B3EF34F0B2
:10696000F28EB4EF34F0F29E4A684B682AEF35F0AD
:1069700081B4BDEF34F0BFEF34F0A2EF34F0010E7C
:10698000506ECEEF34F0502A5004D8A4CAEF34F041
:10699000CCEF34F0CEEF34F0ABEF34F081A4D3EF92
:1069A00034F0D5EF34F0C3EF34F05BB2DAEF34F00B
:1069B000DDEF34F0F28EDEEF34F0F29E5050016ED7
:1069C000026A036A046A010E70EC36F001C00FF02F
:1069D00002C010F003C011F004C012F0000E136EDC
:1069E000000E146EA00E156E420E166E16EC39F0E7
:1069F0000FC04CF010C04DF011C04EF012C04FF05F
:106A00004CC027F04DC028F04EC029F04FC02AF0EE
:106A1000000E2B6E000E2C6E200E2D6E420E2E6E72
:106A2000E3EC3AF027C04CF028C04DF029C04EF0FE
:106A30002AC04FF04CC040F04DC041F04EC042F073
:106A40004FC043F013EC34F040505A6E000E4B6EC2
:106A5000000E4A6E1200000E556E000E546E000EAF
:106A6000536E010E526E000E4F6E46EF35F052C05F
:106A700001F053C002F0000E046E0A0E036EE4EC47
:106A80002EF001C052F002C053F04F2A4E504F5C1E
:106A9000D8A04DEF35F04FEF35F037EF35F04AC065
:106AA00040F04BC041F04CC042F04DC043F013ECFD
:106AB00034F040C050F041C051F052C001F053C01A
:106AC00002F0000E02BEFF0E036E046E010E70ECAB
:106AD00036F001C02BF002C02CF003C02DF004C032
:106AE0002EF050C001F051C002F0000E02BEFF0EA9
:106AF000036E046E010E70EC36F001C023F002C08C
:106B000024F003C025F004C026F04AC01FF04BC09B
:106B100020F04CC021F04DC022F00BEC30F01FC033
:106B200027F020C028F021C029F022C02AF0E3EC91
:106B30003AF027C040F028C041F029C042F02AC0F6
:106B400043F013EC34F040C054F041C055F055BE52
:106B5000AEEF35F0ACEF35F0B2EF35F0546C551EBA
:106B6000D8B0552A50C019F051C01AF0F3EC32F0E9
:106B70002E0EF7EC2EF054C019F055C01AF0F3ECBD
:106B800032F0120017EC2EF0010E026E000E016EB4
:106B90006EEC2EF0270EFDEC31F062EC2EF0000EC4
:106BA000196E030E90EC2FF0E10E196E7E0E1A6E28
:106BB0007CEC30F0010E196E030E90EC2FF096EC89
:106BC00034F04A504B10D8B4E8EF35F0EAEF35F026
:106BD000F2EF35F0E70E196E7E0E1A6E7CEC30F097
:106BE000F0EF35F0FB0E196E7E0E1A6E7CEC30F075
:106BF0003D0E576EE10E566E400EE82EFED7562E15
:106C0000FCD7572EFAD77A0E576EC10E566E820EEB
:106C1000E82EFED7562EFCD7572EFAD7A10E406E7F
:106C20009D0E416E4AEC37F040C05CF041C05DF013
:106C30005C505D10D8B41FEF36F021EF36F030EF26
:106C400036F062EC2EF0000E196E000E90EC2FF074
:106C5000D50E196E7E0E1A6E7CEC30F003EF36F016
:106C600062EC2EF0000E196E000E90EC2FF0F10E7B
:106C7000196E7E0E1A6E7CEC30F0A1C04AF0A2C0F4
:106C80004BF0A3C04CF0A4C04DF0020E4E6E2BECA6
:106C900035F0F80E196E7E0E1A6E7CEC30F0010E97
:106CA000196E000E90EC2FF0ED0E196E7E0E1A6E1E
:106CB0007CEC30F09DC04AF09EC04BF09FC04CF081
:106CC000A0C04DF0020E4E6E2BEC35F0F50E196E95
:106CD0007E0E1A6E7CEC30F003EF36F000EF10F011
:106CE000096E0950D8B477EF36F079EF36F09BEFA4
:106CF00036F004BE80EF36F07EEF36F09BEF36F0D4
:106D000001C005F002C006F003C007F004C008F09F
:106D1000051E061E071E081E052A000E0622072253
:106D2000082205C00BF006C00CF007C00DF008C02B
:106D30000EF0A3EF36F001C00BF002C00CF003C060
:106D40000DF004C00EF00150021003100410D8A47E
:106D5000ACEF36F0AEEF36F0B8EF36F0000E016E65
:106D6000000E026E000E036E000E046E49EF37F047
:106D7000960E0A6EC2EF36F00A2AD8900E320D3205
:106D80000C320B32000E0B14056E000E0C14066E46
:106D9000000E0D14076EFE0E0E14086E0550061040
:106DA00007100810D8A4D7EF36F0D9EF36F0BCEFB3
:106DB00036F0E7EF36F00A2A010E0B26000E0C2201
:106DC0000D220E22D8900E320D320C320B32000EF4
:106DD0000B14056E000E0C14066E000E0D14076EDB
:106DE000FF0E0E14086E0550061007100810D8A4E8
:106DF000FCEF36F0FEEF36F0DBEF36F006EF37F063
:106E00000A06D8900B360C360D360E360DBE0BEF3B
:106E100037F00DEF37F015EF37F0020E0A6013EF81
:106E200037F015EF37F000EF37F00AB01AEF37F010
:106E30001CEF37F01DEF37F00D9ED8900A320AC0D4
:106E400005F0066A076A086A05C008F0076A066A5C
:106E5000056A05500B1206500C1207500D1208500F
:106E60000E120950D8B437EF37F039EF37F041EF51
:106E700037F004BE40EF37F03EEF37F041EF37F028
:106E80000E8E0BC001F00CC002F00DC003F00EC05E
:106E900004F0120020EECDF0040EDE6AE806FDE2FA
:106EA00020EEA5F0270EDE6AE806FDE2010E0001E5
:106EB000D86F5B80F2AE5B90F29EBEEC2EF06DEF71
:106EC00037F00001D82BD805D8A469EF37F06BEF65
:106ED00037F06DEF37F00AEF39F081B472EF37F029
:106EE00074EF37F061EF37F0010E0001D86F84EFD7
:106EF00037F0D82BD805D8A480EF37F082EF37F0E1
:106F000084EF37F00AEF39F081A489EF37F08BEF87
:106F100037F079EF37F0010ED86F9AEF37F0D82BB2
:106F2000D805D8A496EF37F098EF37F09AEF37F0FE
:106F30000AEF39F081B49FEF37F0A1EF37F08FEF10
:106F400037F0010ED86FB0EF37F0D82BD805D8A4A2
:106F5000ACEF37F0AEEF37F0B0EF37F00AEF39F0C3
:106F600081A4B5EF37F0B7EF37F0A5EF37F0000E9B
:106F7000D36F000ED26FD251A50FD96EDA6A010E0F
:106F8000DF6E010ED86FD4EF37F0D251A50FD96E56
:106F9000DA6ADF2ADE04D8A4D0EF37F0D2EF37F078
:106FA000D4EF37F00AEF39F081B4D9EF37F0DBEFE7
:106FB00037F0C5EF37F0E8EF37F0D82BD805D8A475
:106FC000E4EF37F0E6EF37F0E8EF37F00AEF39F0AB
:106FD00081A4EDEF37F0EFEF37F0DDEF37F0D24B74
:106FE000D32BD3BFFDEF37F0D35109E1280ED25D8B
:106FF000D8A0FDEF37F0FFEF37F0BBEF37F0000E12
:10700000D56F000ED46F000ED76F000ED66FD4511F
:10701000A50FD625D96EDA6ADE505A5CD8B013EFC8
:1070200038F015EF38F032EF38F0D6510708426EDD
:10703000010E436E422A1FEF38F0D8904336422E9D
:107040001DEF38F0D4C001F0D5C002F0000E046E80
:10705000080E036E4DEC33F00150CD0FD96EDA6A95
:107060004350DF120001D64BD72BD7BF41EF38F08A
:10707000D75109E1080ED65DD8A041EF38F043EFB3
:1070800038F007EF38F0080ED427000ED523D5BF0F
:1070900053EF38F0D55109E1280ED45DD8A053EF55
:1070A00038F055EF38F003EF38F05BB05AEF38F0B6
:1070B0005DEF38F0F28E5EEF38F0F29E0001CD51B8
:1070C000016E026A036A046A010E70EC36F001C0B8
:1070D0000FF002C010F003C011F004C012F0CD0E8A
:1070E0002B6ECC0E2C6ECC0E2D6E3D0E2E6E000136
:1070F000CE51016E026A036A046A010E70EC36F02A
:1071000001C027F002C028F003C029F004C02AF013
:10711000E3EC3AF027C013F028C014F029C015F0B2
:107120002AC016F0F8EC3CF04150D96EDA6A0FC074
:10713000DEFF10C0DEFF11C0DEFF12C0DEFF000167
:10714000CF51016E026A036A046A010E70EC36F0D8
:1071500001C00FF002C010F003C011F004C012F023
:10716000CD0E2B6ECC0E2C6ECC0E2D6E3D0E2E6EDB
:107170000001D051016E026A036A046A010E70ECCC
:1071800036F001C027F002C028F003C029F004C087
:107190002AF0E3EC3AF027C013F028C014F029C01D
:1071A00015F02AC016F0F8EC3CF04050D96EDA6ABF
:1071B0000FC0DEFF10C0DEFF11C0DEFF12C0DEFF19
:1071C0000001D151426E436ACE51CDC044F0456AB0
:1071D0004426000E4522CF514426000E4522D051B0
:1071E0004426000E45224250441809E143504518F8
:1071F000D8B4FDEF38F0FFEF38F004EF39F0D1C02C
:1072000040F0416A15EF39F0000E416E000E406EFD
:1072100015EF39F05BB00FEF39F012EF39F0F28E65
:1072200013EF39F0F29E4068416812001250800B53
:107230001F6E12501224266E11AE21EF39F023EF8B
:1072400039F024EF39F026802650D8B42AEF39F0EF
:107250002CEF39F041EF39F02628D8A432EF39F07D
:1072600034EF39F03CEF39F0000E0F6E000E106E67
:10727000000E116E000E126E118E000E126E49EF8E
:1072800039F0000E0F6E000E106E000E116E000E23
:10729000126E1650800B1F1A16501624276E15AE4C
:1072A00054EF39F056EF39F057EF39F02780275077
:1072B000D8B45DEF39F05FEF39F074EF39F027287B
:1072C000D8A465EF39F067EF39F06FEF39F0000EB1
:1072D000136E000E146E000E156E000E166E158ED7
:1072E000000E166E7CEF39F0000E136E000E146E59
:1072F000000E156E000E166E135014101510161099
:10730000D8A485EF39F087EF39F09FEF39F0000E00
:107310000F6E000E106E000E116E000E126E800EBB
:1073200011127F0E12121F5012120FC00FF010C058
:1073300010F011C011F012C012F0E2EF3AF0265036
:10734000D8A4A5EF39F0A7EF39F0B1EF39F0000E6E
:107350000F6E000E106E000E116E000E126EE2EF38
:107360003AF0275026C017F0186A175E000E185A18
:107370007F0E1724206E000E1820216E0FC01BF008
:1073800010C01CF011C01DF012C01EF0000E0F6ED8
:10739000000E106E000E116E000E126E000E226EA8
:1073A000000E236E000E246E000E256E000E276E5A
:1073B00012EF3AF02750D8B4E0EF39F0E2EF39F0AD
:1073C000F9EF39F0D8901B361C361D361E36D89092
:1073D0000F3610361136123625AEF1EF39F0F3EFD5
:1073E00039F0F4EF39F00F80D89022362336243666
:1073F000253613501B5C14501C5815501D58165040
:107400001E58D8A006EF3AF008EF3AF011EF3AF024
:10741000258C13501B5E14501C5A15501D5A1650C3
:107420001E5A272A190E276418EF3AF01AEF3AF07D
:10743000DAEF39F01B501C101D101E10D8B423EFCA
:107440003AF025EF3AF03DEF3AF022803DEF3AF086
:10745000D8900F3610361136123625AE32EF3AF08C
:1074600034EF3AF035EF3AF00F80D89022362336D9
:10747000243625362006D8A0210611AE42EF3AF078
:1074800044EF3AF028EF3AF0000E276E25AE4BEFAE
:107490003AF04DEF3AF071EF3AF0FF0E2214176E0A
:1074A000FF0E2314186EFF0E2414196E7F0E251480
:1074B0001A6E1750181019101A10D8B462EF3AF05B
:1074C00064EF3AF068EF3AF0010E276E71EF3AF090
:1074D0000FA06DEF3AF06FEF3AF071EF3AF064EF12
:1074E0003AF02750D8B477EF3AF079EF3AF09DEFC1
:1074F0003AF0010E0F26000E10221122122212A0C5
:1075000084EF3AF086EF3AF09DEF3AF00FC017F0B3
:1075100010C018F011C019F012C01AF01A341A3243
:1075200019321832173217C00FF018C010F019C0F6
:1075300011F01AC012F0204A212A21BEA8EF3AF019
:10754000215008E12028D8A0A8EF3AF0AAEF3AF09D
:10755000B5EF3AF0000E216E2068000E0F6E000E9F
:10756000106E000E116E000E126E21BEC2EF3AF0C8
:10757000215006E12004D8B0C0EF3AF0C2EF3AF053
:10758000D0EF3AF0000E216E000E206E000E0F6E4E
:10759000000E106E000E116E000E126E000E1F6EA9
:1075A00020C026F026A0D7EF3AF0D9EF3AF0DCEF72
:1075B0003AF0118EDDEF3AF0119ED8902630126E1F
:1075C00093EF39F012002A50800B336E2A502A2490
:1075D000396E29AEEEEF3AF0F0EF3AF0F1EF3AF013
:1075E00039803950D8B4F7EF3AF0F9EF3AF00CEFB0
:1075F0003BF03928D8A4FFEF3AF001EF3BF009EF58
:107600003BF0000E276E000E286E000E296E000E55
:107610002A6E298E14EF3BF0000E276E000E286EA6
:10762000000E296E000E2A6E2E50800B331A2E503B
:107630002E24386E2DAE1FEF3BF021EF3BF022EFF2
:107640003BF038803850D8B428EF3BF02AEF3BF0BD
:107650003DEF3BF03828D8A430EF3BF032EF3BF061
:107660003AEF3BF0000E2B6E000E2C6E000E2D6ECE
:10767000000E2E6E2D8E45EF3BF0000E2B6E000E91
:107680002C6E000E2D6E000E2E6E3850D8B44BEFBF
:107690003BF04DEF3BF055EF3BF03950D8A453EFA2
:1076A0003BF055EF3BF05FEF3BF0000E276E000E16
:1076B000286E000E296E000E2A6EF7EF3CF02D505A
:1076C0002702F3CF3EF0F4CF3FF03E50346E356AE0
:1076D000366A376A3F503A6E3B6A3C6A3D6A2C50C4
:1076E0002802F3CF3EF0F4CF3FF03E503426000E98
:1076F0003522362237223F503A26000E3B223C22CA
:107700003D222B502902F3CF3EF0F4CF3FF03E5004
:107710003426000E3522362237223F503A26000EFC
:107720003B223C223D2236C037F035C036F034C013
:1077300035F0346A2B502802F3CF3EF0F4CF3FF0FF
:107740003E5034263F503522000E3622000E37229E
:107750002C502702F3CF3EF0F4CF3FF03E503426BA
:107760003F503522000E3622000E372236C037F049
:1077700035C036F034C035F0346A2B502702F3CFD1
:107780003EF0F4CF3FF03E5034263F503522000EFD
:107790003622000E37222D502802F3CF3EF0F4CFD0
:1077A0003FF03E503A263F503B22000E3C22000E56
:1077B0003D222C502902F3CF3EF0F4CF3FF03E5053
:1077C0003A263F503B22000E3C22000E3D222D5017
:1077D0002902F3CF3EF0F4CF3FF03E502F6E3F50E2
:1077E000306E316A326A31C032F030C031F02FC0B1
:1077F00030F02F6A2F503A2630503B2231503C2235
:1078000032503D2234C02FF035C030F036C031F058
:1078100037C032F0190E12EF3CF0D89032323132CC
:1078200030322F32E82E0DEF3CF02F503A263050F8
:107830003B2231503C2232503D2236C037F035C019
:1078400036F034C035F0346A385039C02FF0306A21
:107850002F26000E3022820E2F243E6EFF0E302087
:107860003F6E48EF3CF0D8903A363B363C363D36DA
:1078700037AE3DEF3CF03FEF3CF040EF3CF03A805C
:10788000D89034363536363637363E06D8A03F06E1
:107890003CAE4DEF3CF04FEF3CF033EF3CF0000ED0
:1078A000386E37AE56EF3CF058EF3CF07CEF3CF0D2
:1078B000FF0E34142F6EFF0E3514306EFF0E36148B
:1078C000316E7F0E3714326E2F503010311032105F
:1078D000D8B46DEF3CF06FEF3CF073EF3CF0010E6D
:1078E000386E7CEF3CF03AA078EF3CF07AEF3CF059
:1078F0007CEF3CF06FEF3CF03850D8B482EF3CF0B6
:1079000084EF3CF0A8EF3CF0010E3A26000E3B223B
:107910003C223D223DA08FEF3CF091EF3CF0A8EFE0
:107920003CF03AC02FF03BC030F03CC031F03DC0DD
:1079300032F032343232313230322F322FC03AF01C
:1079400030C03BF031C03CF032C03DF03E4A3F2AEF
:107950003FBEB3EF3CF03F5008E13E28D8A0B3EF64
:107960003CF0B5EF3CF0BFEF3CF0000E3A6E000E7D
:107970003B6E800E3C6E7F0E3D6EEDEF3CF03FBEE9
:10798000CCEF3CF03F5006E13E04D8B0CAEF3CF0EB
:10799000CCEF3CF0D8EF3CF0000E3A6E000E3B6EA0
:1079A000000E3C6E000E3D6E000E336EEDEF3CF0AF
:1079B0003EC039F0FF0E3A16FF0E3B167F0E3C1606
:1079C000000E3D1639A0E7EF3CF0E9EF3CF0EAEF9E
:1079D0003CF03C8ED89039303D6E33503D123AC069
:1079E00027F03BC028F03CC029F03DC02AF012002F
:1079F0001250800B1B6E125012241D6E11AE03EF3D
:107A00003DF005EF3DF006EF3DF01D801D50D8B470
:107A10000CEF3DF00EEF3DF023EF3DF01D28D8A414
:107A200014EF3DF016EF3DF01EEF3DF0000E0F6E2F
:107A3000000E106E000E116E000E126E118E000EF2
:107A4000126E2BEF3DF0000E0F6E000E106E000E4A
:107A5000116E000E126E1650800B1C6E1B501C18FF
:107A6000D8B435EF3DF037EF3DF038EF3DF01B8CEB
:107A7000165016241C6E15AE40EF3DF042EF3DF05F
:107A800043EF3DF01C801C50D8B449EF3DF04BEF64
:107A90003DF060EF3DF01C28D8A451EF3DF053EFCE
:107AA0003DF05BEF3DF0000E136E000E146E000E05
:107AB000156E000E166E158E000E166E68EF3DF0F8
:107AC000000E136E000E146E000E156E000E166E74
:107AD0001D501C5CD8B06FEF3DF071EF3DF098EF9A
:107AE0003DF01BAC76EF3DF078EF3DF07AEF3DF0E6
:107AF000800E1B1A1DC01EF01CC01DF01EC01CF005
:107B00000FC01EF013C00FF01EC013F010C01EF007
:107B100014C010F01EC014F011C01EF015C011F0FA
:107B20001EC015F012C01EF016C012F01EC016F0D6
:107B3000000E1E6E1D501CC017F0186A175E000E56
:107B4000185A18BEADEF3DF0185009E11A0E175C37
:107B5000D8A0ADEF3DF0AFEF3DF0E6EF3DF00F50B8
:107B6000101011101210D8A4B8EF3DF0BBEF3DF08B
:107B7000010EBCEF3DF0000E1E6E000E0F6E000EEB
:107B8000106E000E116E000E126E1CC01DF0EFEF95
:107B90003DF01EA0CEEF3DF0D0EF3DF0D6EF3DF032
:107BA000D8901E3001091E6ED8EF3DF0D8901E32DD
:107BB0000FA0DDEF3DF0DFEF3DF0E0EF3DF01E8E7A
:107BC00012341232113210320F321D2A1C501D5C39
:107BD000D8A0EDEF3DF0EFEF3DF0C9EF3DF01BBC5D
:107BE000F4EF3DF0F6EF3DF036EF3EF01D50D8A437
:107BF000FCEF3DF0FEEF3DF008EF3EF0000E0F6EA3
:107C0000000E106E000E116E000E126E57EF3FF058
:107C100013500F2614501022155011221650122204
:107C200012A015EF3EF017EF3EF0C3EF3EF01EA09E
:107C30001CEF3EF01EEF3EF024EF3EF0D8901E30D9
:107C400001091E6E26EF3EF0D8901E320FA02BEFDA
:107C50003EF02DEF3EF02EEF3EF01E8E123412322B
:107C6000113210320F321D2AC3EF3EF013500F5C59
:107C700014501058155011581250800A176E165093
:107C8000800A1758D8B047EF3EF049EF3EF074EF46
:107C90003EF00F50135C176E10501458186E1150B0
:107CA0001558196E125016581A6EFF0E17240F6EC3
:107CB000FF0E1820106EFF0E1920116EFF0E1A20F5
:107CC000126E800E1B1A1E6C1E50D8A46AEF3EF076
:107CD0006CEF3EF07CEF3EF0010E0F26000E1022FE
:107CE000112212227CEF3EF013500F5E1450105AF6
:107CF0001550115A1650125A0F5010101110121020
:107D0000D8A485EF3EF087EF3EF0BCEF3EF01E506A
:107D1000D8A48DEF3EF08FEF3EF0BCEF3EF0000EAA
:107D20000F6E000E106E000E116E000E126E57EFE9
:107D30003FF0D8900F361036113612361EAEA3EF34
:107D40003EF0A5EF3EF0A6EF3EF00F801EA0ABEF99
:107D50003EF0ADEF3EF0B1EF3EF0D8801E36B3EF0F
:107D60003EF0D8901E361D50D8B4B9EF3EF0BBEFB0
:107D70003EF0BCEF3EF01D0611AEC1EF3EF0C3EF8A
:107D80003EF099EF3EF0000E1C6E1EAECAEF3EF0C4
:107D9000CCEF3EF0E4EF3EF01EC017F07F0E17165A
:107DA000D8B4D5EF3EF0D7EF3EF0DBEF3EF0010E5A
:107DB0001C6EE4EF3EF00FA0E0EF3EF0E2EF3EF08D
:107DC000E4EF3EF0D7EF3EF01C50D8B4EAEF3EF0BF
:107DD000ECEF3EF017EF3FF0010E0F26000E1022E1
:107DE0001122122212A0F7EF3EF0F9EF3EF017EF4A
:107DF0003FF00FC017F010C018F011C019F012C0FA
:107E00001AF01A341A3219321832173217C00FF01A
:107E100018C010F019C011F01AC012F01D28D8B403
:107E200014EF3FF016EF3FF017EF3FF01D2A1D282B
:107E3000D8B41DEF3FF01FEF3FF027EF3FF01D508C
:107E4000D8A425EF3FF027EF3FF039EF3FF0000EC9
:107E50000F6E000E106E000E116E000E126E1D5091
:107E6000D8A435EF3FF037EF3FF039EF3FF0000E89
:107E70001B6E1DA03EEF3FF040EF3FF043EF3FF0A1
:107E8000118E44EF3FF0119ED8901D30126E1BAE44
:107E90004CEF3FF04EEF3FF04FEF3FF0128E0FC030
:107EA0000FF010C010F011C011F012C012F012004B
:107EB000000A5C3C5C4C5C5E678E64165CEE62CAD9
:107EC0005BD25BDA5BE25BEA5BF25BFA5B225C82D1
:107ED00062004014544448543131204572726F722C
:107EE000004448543131004552524F5200483A2024
:107EF00000543A20002025002043004F4B0000FF93
:020000040030CA
:0400000003285F3C36
:020000040020DA
:080000000904030100000000E7
:00000001FF
