:020000040000FA
:10200000E8EF31F0FFFFFFFFFFFFFFFFFFFFFFFFE4
:10201000FFFFFFFFFFFFFFFFFFFFFFFFFFFFFFFFD0
:10626000FFFFFFFFFFFFFFFFFFFFFFFFFFFFFFFF3E
:10627000FFFFFFFFFF280827BAEC31F0C5801200AE
:10628000BAEC31F0C5841200280EC66E000EC56E41
:10629000000EC76E770EC86E938093821200010EB7
:1062A0007FEC31F03F0E0E6E550EE82EFED70E2E0F
:1062B000FCD700001200026EBAEC31F002C0C9FF38
:1062C000BAEC31F0C5BC67EF31F06AEF31F0010E86
:1062D0006BEF31F0000E12008A949394020E026E5E
:1062E000380E016EAD0EE82EFED7012EFCD7022E21
:1062F000FAD700009384040EE82EFED712000D6E2C
:106300000D50F00B0B6E0D38F00BF00B0C6E0B50AC
:1063100053EC32F00C5053EC32F0C00E00D0E82EAB
:10632000FDD7120001500302F3CF05F0F4CF06F0C1
:1063300001500402F350062602500302F3500626D1
:1063400005C001F006C002F012000D6E0D50F00BFA
:1063500001090B6E0D38F00BF00B01090C6E0B50A0
:1063600053EC32F00C5053EC32F0C00E00D0E82E5B
:10637000FDD71200C7B4BFEF31F0C3EF31F0016AAF
:10638000012AC4EF31F0016AC5501F0B011000094A
:10639000D8A4CDEF31F0CFEF31F0BAEF31F01200E9
:1063A0000F6E030E0E64D7EF31F0D9EF31F0DBEF53
:1063B00031F0E7EF31F0D10E0E24F66EF76A7E0E63
:1063C000F7220800F5500F2480097FEC31F012000D
:1063D000750EF66E620EF76E000EF86E0900F5CFC0
:1063E00058F00900F5CF59F00900F5CF5AF000EE4A
:1063F00060F0450EEE6AE806FDE15B6A5D6A5C6A84
:10640000000EF86E0001CBEF35F0000E231A000EDF
:10641000241A000E251A800E261A1FC00FF020C065
:1064200010F021C011F022C012F023C013F024C0DC
:1064300014F025C015F026C016F008EC3DF00FC092
:106440001FF010C020F011C021F012C022F0120085
:10645000000E136E000E126E3EEF32F012500E243C
:10646000106E13500F20116E10C0F6FF11C0F7FF11
:106470000800F550A5EC31F0124A132A12500E24F0
:10648000106E13500F20116E10C0F6FF11C0F7FFF1
:106490000800F5500009D8A450EF32F052EF32F066
:1064A0002EEF32F01200096E095059100A6E0A0ED2
:1064B000036E000E056E010E046E5A5084EC32F02D
:1064C000040EE82EFED70950591004090A6E0A0E70
:1064D000036E000E056E010E046E5A5084EC32F00D
:1064E000040EE82EFED70950FB0B59100A6E0A0E57
:1064F000036E000E056E010E046E5A5084EC32F0ED
:10650000040EE82EFED71200066E3CEC31F0065069
:1065100006245BEC31F00009D8B491EF32F093EF30
:1065200032F097EF32F040EC31F0BDEF32F0000E78
:10653000086E000E076EB0EF32F003500724D96EDC
:10654000DA6ADF505BEC31F00009D8B4AAEF32F020
:10655000ACEF32F0AEEF32F093EF32F0074A082A98
:106560000450075C05500858D8A0B9EF32F0BBEFD3
:1065700032F09DEF32F093EF32F01200116E11C045
:106580005AF0300E53EC32F0470E0F6E200EE82E0C
:10659000FED70F2EFCD7300E53EC32F0470E0F6EA5
:1065A000200EE82EFED70F2EFCD7300E53EC32F023
:1065B000030E0F6E550EE82EFED70F2EFCD70000EF
:1065C000280E53EC32F0050E106EDF0E0F6EBC0E6F
:1065D000E82EFED70F2EFCD7102EFAD7280E7FEC10
:1065E00031F0050E106EDF0E0F6EBC0EE82EFED7DA
:1065F0000F2EFCD7102EFAD7080E7FEC31F04FEC9F
:1066000031F0060E7FEC31F00C0E7FEC31F0120011
:10661000000E066E02BE11EF33F00FEF33F017EFEE
:1066200033F0016C021ED8B0022A010E066E04BEC1
:106630001EEF33F01CEF33F022EF33F0036C041E37
:10664000D8B0042A03500410D8B429EF33F02BEF4C
:1066500033F04FEF33F0010E056E33EF33F0D89087
:1066600003360436052A04AE38EF33F03AEF33F040
:106670002FEF33F00350015C04500258D8A043EFD1
:1066800033F045EF33F049EF33F00350015E04502F
:10669000025AD89004320332052E3AEF33F00650F6
:1066A000D8B455EF33F057EF33F05BEF33F0016CB4
:1066B000021ED8B0022A01C001F002C002F012008E
:1066C00020EE10F00F0EDE6AE806FDE2000E216EED
:1066D0000FBE6FEF33F06DEF33F076EF33F02D0E2A
:1066E000A5EC31F00E6C0F1ED8B00F2A2150100F00
:1066F000D96EDA6A0EC001F00FC002F0000E046E0F
:106700000A0E036E08EC33F00150300FDF6E212AC1
:106710000EC001F00FC002F0000E046E0A0E036EF0
:10672000BAEC33F001C00EF002C00FF00FBEA3EFC1
:1067300033F00F5006E10E04D8B0A1EF33F0A3EF11
:1067400033F076EF33F0010E206EB0EF33F02050CF
:1067500010082124D96EDA6ADF50A5EC31F0202A26
:106760002050215CD8B0B7EF33F0B9EF33F0A7EF8A
:1067700033F01200000E066E04BEC3EF33F0C1EF1B
:1067800033F0C9EF33F0036C041ED8B0042A010EB5
:10679000066E02BED0EF33F0CEEF33F0D6EF33F01B
:1067A000016C021ED8B0022A010E061A000E086EF5
:1067B000000E076E03500410D8B4E1EF33F0E3EF9E
:1067C00033F00BEF34F0010E056EEBEF33F0D890A1
:1067D00003360436052A04AEF0EF33F0F2EF33F05F
:1067E000E7EF33F0D890073608360350015C0450C9
:1067F0000258D8A0FEEF33F000EF34F005EF34F08C
:106800000350015E0450025A0780D89004320332CC
:10681000052EF2EF33F00650D8B411EF34F013EF39
:1068200034F017EF34F0076C081ED8B0082A07C000
:1068300001F008C002F0120042344334496E49505E
:10684000D8A425EF34F027EF34F031EF34F0000E08
:10685000406E000E416E000E426E000E436E9EEFC3
:1068600034F040C044F041C045F042C046F043C05F
:1068700047F0200E41EF34F0D8904732463245328F
:106880004432E82E3CEF34F04450486E428EFF0E06
:106890004016FF0E4116FF0E4216000E4316960ECE
:1068A000495E49BE58EF34F056EF34F06EEF34F0E5
:1068B0004950800A970FD8B060EF34F062EF34F09F
:1068C00064EF34F027EF34F0D89043324232413253
:1068D0004032493E64EF34F086EF34F01F0E4964D5
:1068E00074EF34F076EF34F07EEF34F027EF34F0CD
:1068F000D890403641364236433649064950D8A4EE
:1069000084EF34F086EF34F078EF34F04850D8B4A8
:106910008CEF34F08EEF34F096EF34F0431E421ECD
:10692000411E406C000E41224222432240C040F0F2
:1069300041C041F042C042F043C043F012008A948B
:1069400093845B82F2AE5B92F29E6CEC31F0010EAE
:10695000506EC1EF34F0502A5004D8A4B2EF34F096
:10696000B4EF34F0C1EF34F05BB2B9EF34F0BCEF08
:1069700034F0F28EBDEF34F0F29E4A684B6833EF8C
:1069800035F081B4C6EF34F0C8EF34F0ABEF34F03B
:10699000010E506ED7EF34F0502A5004D8A4D3EF34
:1069A00034F0D5EF34F0D7EF34F0B4EF34F081A405
:1069B000DCEF34F0DEEF34F0CCEF34F05BB2E3EF39
:1069C00034F0E6EF34F0F28EE7EF34F0F29E505000
:1069D000016E026A036A046A010E80EC36F001C09F
:1069E0000FF002C010F003C011F004C012F0000E4E
:1069F000136E000E146EA00E156E420E166E26EC6F
:106A000039F00FC04CF010C04DF011C04EF012C064
:106A10004FF04CC027F04DC028F04EC029F04FC0B9
:106A20002AF0000E2B6E000E2C6E200E2D6E420EE4
:106A30002E6EF3EC3AF027C04CF028C04DF029C080
:106A40004EF02AC04FF04CC040F04DC041F04EC057
:106A500042F04FC043F01CEC34F04050586E000E32
:106A60004B6E000E4A6E1200000E556E000E546EF4
:106A7000000E536E010E526E000E4F6E4FEF35F04A
:106A800052C001F053C002F0000E046E0A0E036EF5
:106A900092EC31F001C052F002C053F04F2A4E5038
:106AA0004F5CD8A056EF35F058EF35F040EF35F099
:106AB0004AC040F04BC041F04CC042F04DC043F0E2
:106AC0001CEC34F040C050F041C051F052C001F015
:106AD00053C002F0000E02BEFF0E036E046E010EE4
:106AE00080EC36F001C02BF002C02CF003C02DF07A
:106AF00004C02EF050C001F051C002F0000E02BEE2
:106B0000FF0E036E046E010E80EC36F001C023F020
:106B100002C024F003C025F004C026F04AC01FF0D4
:106B20004BC020F04CC021F04DC022F005EC32F0FB
:106B30001FC027F020C028F021C029F022C02AF071
:106B4000F3EC3AF027C040F028C041F029C042F0F1
:106B50002AC043F01CEC34F040C054F041C055F062
:106B600055BEB7EF35F0B5EF35F0BBEF35F0546CEF
:106B7000551ED8B0552A50C00EF051C00FF060EC31
:106B800033F02E0EA5EC31F054C00EF055C00FF0CE
:106B900060EC33F012000F0EC16E44EC31F03D0E8C
:106BA000576EE10E566E400EE82EFED7562EFCD7DD
:106BB000572EFAD7270EBEEC32F04FEC31F0000E14
:106BC0000E6E030ED0EC31F0E10E0E6E7E0E0F6EE7
:106BD00028EC32F0010E0E6E030ED0EC31F09FEC7B
:106BE00034F04A504B10D8B4F8EF35F0FAEF35F0E6
:106BF00002EF36F0E70E0E6E7E0E0F6E28EC32F0CE
:106C000000EF36F0FB0E0E6E7E0E0F6E28EC32F0AB
:106C10003D0E576EE10E566E400EE82EFED7562EF4
:106C2000FCD7572EFAD77A0E576EC10E566E820ECB
:106C3000E82EFED7562EFCD7572EFAD7A10E406E5F
:106C40009D0E416E5AEC37F040C05CF041C05DF0E3
:106C50005C505D10D8B42FEF36F031EF36F040EFD6
:106C600036F04FEC31F0000E0E6E000ED0EC31F02D
:106C7000D50E0E6E7E0E0F6E28EC32F013EF36F04E
:106C80004FEC31F0000E0E6E000ED0EC31F0F10E34
:106C90000E6E7E0E0F6E28EC32F0A1C04AF0A2C03C
:106CA0004BF0A3C04CF0A4C04DF0020E4E6E34EC7D
:106CB00035F0F80E0E6E7E0E0F6E28EC32F0010EDF
:106CC0000E6E000ED0EC31F0ED0E0E6E7E0E0F6EDD
:106CD00028EC32F09DC04AF09EC04BF09FC04CF0B3
:106CE000A0C04DF0020E4E6E34EC35F0F50E0E6E77
:106CF0007E0E0F6E28EC32F013EF36F000EF10F03E
:106D0000096E0950D8B487EF36F089EF36F0ABEF53
:106D100036F004BE90EF36F08EEF36F0ABEF36F083
:106D200001C005F002C006F003C007F004C008F07F
:106D3000051E061E071E081E052A000E0622072233
:106D4000082205C00BF006C00CF007C00DF008C00B
:106D50000EF0B3EF36F001C00BF002C00CF003C030
:106D60000DF004C00EF00150021003100410D8A45E
:106D7000BCEF36F0BEEF36F0C8EF36F0000E016E15
:106D8000000E026E000E036E000E046E59EF37F017
:106D9000960E0A6ED2EF36F00A2AD8900E320D32D5
:106DA0000C320B32000E0B14056E000E0C14066E26
:106DB000000E0D14076EFE0E0E14086E0550061020
:106DC00007100810D8A4E7EF36F0E9EF36F0CCEF63
:106DD00036F0F7EF36F00A2A010E0B26000E0C22D1
:106DE0000D220E22D8900E320D320C320B32000ED4
:106DF0000B14056E000E0C14066E000E0D14076EBB
:106E0000FF0E0E14086E0550061007100810D8A4C7
:106E10000CEF37F00EEF37F0EBEF36F016EF37F000
:106E20000A06D8900B360C360D360E360DBE1BEF0B
:106E300037F01DEF37F025EF37F0020E0A6023EF31
:106E400037F025EF37F010EF37F00AB02AEF37F0C0
:106E50002CEF37F02DEF37F00D9ED8900A320AC094
:106E600005F0066A076A086A05C008F0076A066A3C
:106E7000056A05500B1206500C1207500D120850EF
:106E80000E120950D8B447EF37F049EF37F051EF01
:106E900037F004BE50EF37F04EEF37F051EF37F0D8
:106EA0000E8E0BC001F00CC002F00DC003F00EC03E
:106EB00004F0120020EECDF0040EDE6AE806FDE2DA
:106EC00020EEA5F0270EDE6AE806FDE2010E0001C5
:106ED000D86F5B80F2AE5B90F29E6CEC31F07DEF90
:106EE00037F00001D82BD805D8A479EF37F07BEF25
:106EF00037F07DEF37F01AEF39F081B482EF37F0D9
:106F000084EF37F071EF37F0010E0001D86F94EF86
:106F100037F0D82BD805D8A490EF37F092EF37F0A0
:106F200094EF37F01AEF39F081A499EF37F09BEF27
:106F300037F089EF37F0010ED86FAAEF37F0D82B72
:106F4000D805D8A4A6EF37F0A8EF37F0AAEF37F0AE
:106F50001AEF39F081B4AFEF37F0B1EF37F09FEFB0
:106F600037F0010ED86FC0EF37F0D82BD805D8A472
:106F7000BCEF37F0BEEF37F0C0EF37F01AEF39F063
:106F800081A4C5EF37F0C7EF37F0B5EF37F0000E4B
:106F9000D36F000ED26FD251A50FD96EDA6A010EEF
:106FA000DF6E010ED86FE4EF37F0D251A50FD96E26
:106FB000DA6ADF2ADE04D8A4E0EF37F0E2EF37F038
:106FC000E4EF37F01AEF39F081B4E9EF37F0EBEF87
:106FD00037F0D5EF37F0F8EF37F0D82BD805D8A435
:106FE000F4EF37F0F6EF37F0F8EF37F01AEF39F04B
:106FF00081A4FDEF37F0FFEF37F0EDEF37F0D24B24
:10700000D32BD3BF0DEF38F0D35109E1280ED25D59
:10701000D8A00DEF38F00FEF38F0CBEF37F0000EBF
:10702000D56F000ED46F000ED76F000ED66FD451FF
:10703000A50FD625D96EDA6ADE50585CD8B023EF9A
:1070400038F025EF38F042EF38F0D6510708426E9D
:10705000010E436E422A2FEF38F0D8904336422E6D
:107060002DEF38F0D4C001F0D5C002F0000E046E50
:10707000080E036EBAEC33F00150CD0FD96EDA6A08
:107080004350DF120001D64BD72BD7BF51EF38F05A
:10709000D75109E1080ED65DD8A051EF38F053EF73
:1070A00038F017EF38F0080ED427000ED523D5BFDF
:1070B00063EF38F0D55109E1280ED45DD8A063EF15
:1070C00038F065EF38F013EF38F05BB06AEF38F066
:1070D0006DEF38F0F28E6EEF38F0F29E0001CD5178
:1070E000016E026A036A046A010E80EC36F001C088
:1070F0000FF002C010F003C011F004C012F0CD0E6A
:107100002B6ECC0E2C6ECC0E2D6E3D0E2E6E000115
:10711000CE51016E026A036A046A010E80EC36F0F9
:1071200001C027F002C028F003C029F004C02AF0F3
:10713000F3EC3AF027C013F028C014F029C015F082
:107140002AC016F008EC3DF04150D96EDA6A0FC043
:10715000DEFF10C0DEFF11C0DEFF12C0DEFF000147
:10716000CF51016E026A036A046A010E80EC36F0A8
:1071700001C00FF002C010F003C011F004C012F003
:10718000CD0E2B6ECC0E2C6ECC0E2D6E3D0E2E6EBB
:107190000001D051016E026A036A046A010E80EC9C
:1071A00036F001C027F002C028F003C029F004C067
:1071B0002AF0F3EC3AF027C013F028C014F029C0ED
:1071C00015F02AC016F008EC3DF04050D96EDA6A8E
:1071D0000FC0DEFF10C0DEFF11C0DEFF12C0DEFFF9
:1071E0000001D151426E436ACE51CDC044F0456A90
:1071F0004426000E4522CF514426000E4522D05190
:107200004426000E45224250441809E143504518D7
:10721000D8B40DEF39F00FEF39F014EF39F0D1C0D9
:1072200040F0416A25EF39F0000E416E000E406ECD
:1072300025EF39F05BB01FEF39F022EF39F0F28E15
:1072400023EF39F0F29E4068416812001250800B23
:107250001F6E12501224266E11AE31EF39F033EF4B
:1072600039F034EF39F026802650D8B43AEF39F0AF
:107270003CEF39F051EF39F02628D8A442EF39F02D
:1072800044EF39F04CEF39F0000E0F6E000E106E27
:10729000000E116E000E126E118E000E126E59EF5E
:1072A00039F0000E0F6E000E106E000E116E000E03
:1072B000126E1650800B1F1A16501624276E15AE2C
:1072C00064EF39F066EF39F067EF39F02780275027
:1072D000D8B46DEF39F06FEF39F084EF39F027282B
:1072E000D8A475EF39F077EF39F07FEF39F0000E61
:1072F000136E000E146E000E156E000E166E158EB7
:10730000000E166E8CEF39F0000E136E000E146E28
:10731000000E156E000E166E135014101510161078
:10732000D8A495EF39F097EF39F0AFEF39F0000EB0
:107330000F6E000E106E000E116E000E126E800E9B
:1073400011127F0E12121F5012120FC00FF010C038
:1073500010F011C011F012C012F0F2EF3AF0265006
:10736000D8A4B5EF39F0B7EF39F0C1EF39F0000E1E
:107370000F6E000E106E000E116E000E126EF2EF08
:107380003AF0275026C017F0186A175E000E185AF8
:107390007F0E1724206E000E1820216E0FC01BF0E8
:1073A00010C01CF011C01DF012C01EF0000E0F6EB8
:1073B000000E106E000E116E000E126E000E226E88
:1073C000000E236E000E246E000E256E000E276E3A
:1073D00022EF3AF02750D8B4F0EF39F0F2EF39F05D
:1073E00009EF3AF0D8901B361C361D361E36D89061
:1073F0000F3610361136123625AE01EF3AF003EF94
:107400003AF004EF3AF00F80D89022362336243633
:10741000253613501B5C14501C5815501D5816501F
:107420001E58D8A016EF3AF018EF3AF021EF3AF0D4
:10743000258C13501B5E14501C5A15501D5A1650A3
:107440001E5A272A190E276428EF3AF02AEF3AF03D
:10745000EAEF39F01B501C101D101E10D8B433EF8A
:107460003AF035EF3AF04DEF3AF022804DEF3AF036
:10747000D8900F3610361136123625AE42EF3AF05C
:1074800044EF3AF045EF3AF00F80D8902236233699
:10749000243625362006D8A0210611AE52EF3AF048
:1074A00054EF3AF038EF3AF0000E276E25AE5BEF5E
:1074B0003AF05DEF3AF081EF3AF0FF0E2214176ECA
:1074C000FF0E2314186EFF0E2414196E7F0E251460
:1074D0001A6E1750181019101A10D8B472EF3AF02B
:1074E00074EF3AF078EF3AF0010E276E81EF3AF040
:1074F0000FA07DEF3AF07FEF3AF081EF3AF074EFB2
:107500003AF02750D8B487EF3AF089EF3AF0ADEF70
:107510003AF0010E0F26000E10221122122212A0A4
:1075200094EF3AF096EF3AF0ADEF3AF00FC017F063
:1075300010C018F011C019F012C01AF01A341A3223
:1075400019321832173217C00FF018C010F019C0D6
:1075500011F01AC012F0204A212A21BEB8EF3AF0E9
:10756000215008E12028D8A0B8EF3AF0BAEF3AF05D
:10757000C5EF3AF0000E216E2068000E0F6E000E6F
:10758000106E000E116E000E126E21BED2EF3AF098
:10759000215006E12004D8B0D0EF3AF0D2EF3AF013
:1075A000E0EF3AF0000E216E000E206E000E0F6E1E
:1075B000000E106E000E116E000E126E000E1F6E89
:1075C00020C026F026A0E7EF3AF0E9EF3AF0ECEF22
:1075D0003AF0118EEDEF3AF0119ED8902630126EEF
:1075E000A3EF39F012002A50800B336E2A502A2460
:1075F000396E29AEFEEF3AF000EF3BF001EF3BF0C1
:1076000039803950D8B407EF3BF009EF3BF01CEF5D
:107610003BF03928D8A40FEF3BF011EF3BF019EF06
:107620003BF0000E276E000E286E000E296E000E35
:107630002A6E298E24EF3BF0000E276E000E286E76
:10764000000E296E000E2A6E2E50800B331A2E501B
:107650002E24386E2DAE2FEF3BF031EF3BF032EFA2
:107660003BF038803850D8B438EF3BF03AEF3BF07D
:107670004DEF3BF03828D8A440EF3BF042EF3BF011
:107680004AEF3BF0000E2B6E000E2C6E000E2D6E9E
:10769000000E2E6E2D8E55EF3BF0000E2B6E000E61
:1076A0002C6E000E2D6E000E2E6E3850D8B45BEF8F
:1076B0003BF05DEF3BF065EF3BF03950D8A463EF52
:1076C0003BF065EF3BF06FEF3BF0000E276E000ED6
:1076D000286E000E296E000E2A6E07EF3DF02D5029
:1076E0002702F3CF3EF0F4CF3FF03E50346E356AC0
:1076F000366A376A3F503A6E3B6A3C6A3D6A2C50A4
:107700002802F3CF3EF0F4CF3FF03E503426000E77
:107710003522362237223F503A26000E3B223C22A9
:107720003D222B502902F3CF3EF0F4CF3FF03E50E4
:107730003426000E3522362237223F503A26000EDC
:107740003B223C223D2236C037F035C036F034C0F3
:1077500035F0346A2B502802F3CF3EF0F4CF3FF0DF
:107760003E5034263F503522000E3622000E37227E
:107770002C502702F3CF3EF0F4CF3FF03E5034269A
:107780003F503522000E3622000E372236C037F029
:1077900035C036F034C035F0346A2B502702F3CFB1
:1077A0003EF0F4CF3FF03E5034263F503522000EDD
:1077B0003622000E37222D502802F3CF3EF0F4CFB0
:1077C0003FF03E503A263F503B22000E3C22000E36
:1077D0003D222C502902F3CF3EF0F4CF3FF03E5033
:1077E0003A263F503B22000E3C22000E3D222D50F7
:1077F0002902F3CF3EF0F4CF3FF03E502F6E3F50C2
:10780000306E316A326A31C032F030C031F02FC090
:1078100030F02F6A2F503A2630503B2231503C2214
:1078200032503D2234C02FF035C030F036C031F038
:1078300037C032F0190E22EF3CF0D890323231329C
:1078400030322F32E82E1DEF3CF02F503A263050C8
:107850003B2231503C2232503D2236C037F035C0F9
:1078600036F034C035F0346A385039C02FF0306A01
:107870002F26000E3022820E2F243E6EFF0E302067
:107880003F6E58EF3CF0D8903A363B363C363D36AA
:1078900037AE4DEF3CF04FEF3CF050EF3CF03A800C
:1078A000D89034363536363637363E06D8A03F06C1
:1078B0003CAE5DEF3CF05FEF3CF043EF3CF0000E80
:1078C000386E37AE66EF3CF068EF3CF08CEF3CF082
:1078D000FF0E34142F6EFF0E3514306EFF0E36146B
:1078E000316E7F0E3714326E2F503010311032103F
:1078F000D8B47DEF3CF07FEF3CF083EF3CF0010E1D
:10790000386E8CEF3CF03AA088EF3CF08AEF3CF008
:107910008CEF3CF07FEF3CF03850D8B492EF3CF065
:1079200094EF3CF0B8EF3CF0010E3A26000E3B22FB
:107930003C223D223DA09FEF3CF0A1EF3CF0B8EF90
:107940003CF03AC02FF03BC030F03CC031F03DC0BD
:1079500032F032343232313230322F322FC03AF0FC
:1079600030C03BF031C03CF032C03DF03E4A3F2ACF
:107970003FBEC3EF3CF03F5008E13E28D8A0C3EF24
:107980003CF0C5EF3CF0CFEF3CF0000E3A6E000E3D
:107990003B6E800E3C6E7F0E3D6EFDEF3CF03FBEB9
:1079A000DCEF3CF03F5006E13E04D8B0DAEF3CF0AB
:1079B000DCEF3CF0E8EF3CF0000E3A6E000E3B6E60
:1079C000000E3C6E000E3D6E000E336EFDEF3CF07F
:1079D0003EC039F0FF0E3A16FF0E3B167F0E3C16E6
:1079E000000E3D1639A0F7EF3CF0F9EF3CF0FAEF4E
:1079F0003CF03C8ED89039303D6E33503D123AC049
:107A000027F03BC028F03CC029F03DC02AF012000E
:107A10001250800B1B6E125012241D6E11AE13EF0C
:107A20003DF015EF3DF016EF3DF01D801D50D8B430
:107A30001CEF3DF01EEF3DF033EF3DF01D28D8A4C4
:107A400024EF3DF026EF3DF02EEF3DF0000E0F6EDF
:107A5000000E106E000E116E000E126E118E000ED2
:107A6000126E3BEF3DF0000E0F6E000E106E000E1A
:107A7000116E000E126E1650800B1C6E1B501C18DF
:107A8000D8B445EF3DF047EF3DF048EF3DF01B8C9B
:107A9000165016241C6E15AE50EF3DF052EF3DF01F
:107AA00053EF3DF01C801C50D8B459EF3DF05BEF14
:107AB0003DF070EF3DF01C28D8A461EF3DF063EF7E
:107AC0003DF06BEF3DF0000E136E000E146E000ED5
:107AD000156E000E166E158E000E166E78EF3DF0C8
:107AE000000E136E000E146E000E156E000E166E54
:107AF0001D501C5CD8B07FEF3DF081EF3DF0A8EF4A
:107B00003DF01BAC86EF3DF088EF3DF08AEF3DF095
:107B1000800E1B1A1DC01EF01CC01DF01EC01CF0E4
:107B20000FC01EF013C00FF01EC013F010C01EF0E7
:107B300014C010F01EC014F011C01EF015C011F0DA
:107B40001EC015F012C01EF016C012F01EC016F0B6
:107B5000000E1E6E1D501CC017F0186A175E000E36
:107B6000185A18BEBDEF3DF0185009E11A0E175C07
:107B7000D8A0BDEF3DF0BFEF3DF0F6EF3DF00F5068
:107B8000101011101210D8A4C8EF3DF0CBEF3DF04B
:107B9000010ECCEF3DF0000E1E6E000E0F6E000EBB
:107BA000106E000E116E000E126E1CC01DF0FFEF65
:107BB0003DF01EA0DEEF3DF0E0EF3DF0E6EF3DF0E2
:107BC000D8901E3001091E6EE8EF3DF0D8901E32AD
:107BD0000FA0EDEF3DF0EFEF3DF0F0EF3DF01E8E2A
:107BE00012341232113210320F321D2A1C501D5C19
:107BF000D8A0FDEF3DF0FFEF3DF0D9EF3DF01BBC0D
:107C000004EF3EF006EF3EF046EF3EF01D50D8A4E4
:107C10000CEF3EF00EEF3EF018EF3EF0000E0F6E50
:107C2000000E106E000E116E000E126E67EF3FF028
:107C300013500F26145010221550112216501222E4
:107C400012A025EF3EF027EF3EF0D3EF3EF01EA04E
:107C50002CEF3EF02EEF3EF034EF3EF0D8901E3089
:107C600001091E6E36EF3EF0D8901E320FA03BEF9A
:107C70003EF03DEF3EF03EEF3EF01E8E12341232EB
:107C8000113210320F321D2AD3EF3EF013500F5C29
:107C900014501058155011581250800A176E165073
:107CA000800A1758D8B057EF3EF059EF3EF084EFF6
:107CB0003EF00F50135C176E10501458186E115090
:107CC0001558196E125016581A6EFF0E17240F6EA3
:107CD000FF0E1820106EFF0E1920116EFF0E1A20D5
:107CE000126E800E1B1A1E6C1E50D8A47AEF3EF046
:107CF0007CEF3EF08CEF3EF0010E0F26000E1022BE
:107D0000112212228CEF3EF013500F5E1450105AC5
:107D10001550115A1650125A0F50101011101210FF
:107D2000D8A495EF3EF097EF3EF0CCEF3EF01E501A
:107D3000D8A49DEF3EF09FEF3EF0CCEF3EF0000E5A
:107D40000F6E000E106E000E116E000E126E67EFB9
:107D50003FF0D8900F361036113612361EAEB3EF04
:107D60003EF0B5EF3EF0B6EF3EF00F801EA0BBEF49
:107D70003EF0BDEF3EF0C1EF3EF0D8801E36C3EFBF
:107D80003EF0D8901E361D50D8B4C9EF3EF0CBEF70
:107D90003EF0CCEF3EF01D0611AED1EF3EF0D3EF3A
:107DA0003EF0A9EF3EF0000E1C6E1EAEDAEF3EF084
:107DB000DCEF3EF0F4EF3EF01EC017F07F0E17161A
:107DC000D8B4E5EF3EF0E7EF3EF0EBEF3EF0010E0A
:107DD0001C6EF4EF3EF00FA0F0EF3EF0F2EF3EF03D
:107DE000F4EF3EF0E7EF3EF01C50D8B4FAEF3EF06F
:107DF000FCEF3EF027EF3FF0010E0F26000E1022A1
:107E00001122122212A007EF3FF009EF3FF027EFF7
:107E10003FF00FC017F010C018F011C019F012C0D9
:107E20001AF01A341A3219321832173217C00FF0FA
:107E300018C010F019C011F01AC012F01D28D8B4E3
:107E400024EF3FF026EF3FF027EF3FF01D2A1D28DB
:107E5000D8B42DEF3FF02FEF3FF037EF3FF01D503C
:107E6000D8A435EF3FF037EF3FF049EF3FF0000E79
:107E70000F6E000E106E000E116E000E126E1D5071
:107E8000D8A445EF3FF047EF3FF049EF3FF0000E39
:107E90001B6E1DA04EEF3FF050EF3FF053EF3FF051
:107EA000118E54EF3FF0119ED8901D30126E1BAE14
:107EB0005CEF3FF05EEF3FF05FEF3FF0128E0FC0E0
:107EC0000FF010C010F011C011F012C012F012002B
:107ED00000004014544448543131204572726F728E
:107EE000004448543131004552524F5200483A2024
:107EF00000543A20002025002043004F4B0000FF93
:020000040030CA
:08000000244E2E1EFF8181FF3A
:020000040020DA
:080000000701080C00000000DC
:00000001FF
